{
  "contractName": "TestDai",
  "abi": [
    {
      "inputs": [],
      "stateMutability": "nonpayable",
      "type": "constructor"
    },
    {
      "anonymous": false,
      "inputs": [
        {
          "indexed": true,
          "internalType": "address",
          "name": "owner",
          "type": "address"
        },
        {
          "indexed": true,
          "internalType": "address",
          "name": "spender",
          "type": "address"
        },
        {
          "indexed": false,
          "internalType": "uint256",
          "name": "value",
          "type": "uint256"
        }
      ],
      "name": "Approval",
      "type": "event"
    },
    {
      "anonymous": false,
      "inputs": [
        {
          "indexed": true,
          "internalType": "address",
          "name": "from",
          "type": "address"
        },
        {
          "indexed": true,
          "internalType": "address",
          "name": "to",
          "type": "address"
        },
        {
          "indexed": false,
          "internalType": "uint256",
          "name": "value",
          "type": "uint256"
        }
      ],
      "name": "Transfer",
      "type": "event"
    },
    {
      "inputs": [],
      "name": "DOMAIN_SEPARATOR",
      "outputs": [
        {
          "internalType": "bytes32",
          "name": "",
          "type": "bytes32"
        }
      ],
      "stateMutability": "view",
      "type": "function"
    },
    {
      "inputs": [],
      "name": "PERMIT_TYPEHASH",
      "outputs": [
        {
          "internalType": "bytes32",
          "name": "",
          "type": "bytes32"
        }
      ],
      "stateMutability": "view",
      "type": "function"
    },
    {
      "inputs": [
        {
          "internalType": "address",
          "name": "owner",
          "type": "address"
        },
        {
          "internalType": "address",
          "name": "spender",
          "type": "address"
        }
      ],
      "name": "allowance",
      "outputs": [
        {
          "internalType": "uint256",
          "name": "",
          "type": "uint256"
        }
      ],
      "stateMutability": "view",
      "type": "function"
    },
    {
      "inputs": [
        {
          "internalType": "address",
          "name": "spender",
          "type": "address"
        },
        {
          "internalType": "uint256",
          "name": "amount",
          "type": "uint256"
        }
      ],
      "name": "approve",
      "outputs": [
        {
          "internalType": "bool",
          "name": "",
          "type": "bool"
        }
      ],
      "stateMutability": "nonpayable",
      "type": "function"
    },
    {
      "inputs": [
        {
          "internalType": "address",
          "name": "account",
          "type": "address"
        }
      ],
      "name": "balanceOf",
      "outputs": [
        {
          "internalType": "uint256",
          "name": "",
          "type": "uint256"
        }
      ],
      "stateMutability": "view",
      "type": "function"
    },
    {
      "inputs": [],
      "name": "decimals",
      "outputs": [
        {
          "internalType": "uint8",
          "name": "",
          "type": "uint8"
        }
      ],
      "stateMutability": "view",
      "type": "function"
    },
    {
      "inputs": [
        {
          "internalType": "address",
          "name": "spender",
          "type": "address"
        },
        {
          "internalType": "uint256",
          "name": "subtractedValue",
          "type": "uint256"
        }
      ],
      "name": "decreaseAllowance",
      "outputs": [
        {
          "internalType": "bool",
          "name": "",
          "type": "bool"
        }
      ],
      "stateMutability": "nonpayable",
      "type": "function"
    },
    {
      "inputs": [
        {
          "internalType": "address",
          "name": "spender",
          "type": "address"
        },
        {
          "internalType": "uint256",
          "name": "addedValue",
          "type": "uint256"
        }
      ],
      "name": "increaseAllowance",
      "outputs": [
        {
          "internalType": "bool",
          "name": "",
          "type": "bool"
        }
      ],
      "stateMutability": "nonpayable",
      "type": "function"
    },
    {
      "inputs": [],
      "name": "name",
      "outputs": [
        {
          "internalType": "string",
          "name": "",
          "type": "string"
        }
      ],
      "stateMutability": "view",
      "type": "function"
    },
    {
      "inputs": [
        {
          "internalType": "address",
          "name": "",
          "type": "address"
        }
      ],
      "name": "nonces",
      "outputs": [
        {
          "internalType": "uint256",
          "name": "",
          "type": "uint256"
        }
      ],
      "stateMutability": "view",
      "type": "function"
    },
    {
      "inputs": [],
      "name": "symbol",
      "outputs": [
        {
          "internalType": "string",
          "name": "",
          "type": "string"
        }
      ],
      "stateMutability": "view",
      "type": "function"
    },
    {
      "inputs": [],
      "name": "totalSupply",
      "outputs": [
        {
          "internalType": "uint256",
          "name": "",
          "type": "uint256"
        }
      ],
      "stateMutability": "view",
      "type": "function"
    },
    {
      "inputs": [
        {
          "internalType": "address",
          "name": "recipient",
          "type": "address"
        },
        {
          "internalType": "uint256",
          "name": "amount",
          "type": "uint256"
        }
      ],
      "name": "transfer",
      "outputs": [
        {
          "internalType": "bool",
          "name": "",
          "type": "bool"
        }
      ],
      "stateMutability": "nonpayable",
      "type": "function"
    },
    {
      "inputs": [
        {
          "internalType": "address",
          "name": "sender",
          "type": "address"
        },
        {
          "internalType": "address",
          "name": "recipient",
          "type": "address"
        },
        {
          "internalType": "uint256",
          "name": "amount",
          "type": "uint256"
        }
      ],
      "name": "transferFrom",
      "outputs": [
        {
          "internalType": "bool",
          "name": "",
          "type": "bool"
        }
      ],
      "stateMutability": "nonpayable",
      "type": "function"
    },
    {
      "inputs": [
        {
          "internalType": "address",
          "name": "holder",
          "type": "address"
        },
        {
          "internalType": "address",
          "name": "spender",
          "type": "address"
        },
        {
          "internalType": "uint256",
          "name": "nonce",
          "type": "uint256"
        },
        {
          "internalType": "uint256",
          "name": "expiry",
          "type": "uint256"
        },
        {
          "internalType": "bool",
          "name": "allowed",
          "type": "bool"
        },
        {
          "internalType": "uint8",
          "name": "v",
          "type": "uint8"
        },
        {
          "internalType": "bytes32",
          "name": "r",
          "type": "bytes32"
        },
        {
          "internalType": "bytes32",
          "name": "s",
          "type": "bytes32"
        }
      ],
      "name": "permit",
      "outputs": [],
      "stateMutability": "nonpayable",
      "type": "function"
    },
    {
      "inputs": [],
      "name": "chainId",
      "outputs": [
        {
          "internalType": "uint256",
          "name": "_chainId",
          "type": "uint256"
        }
      ],
      "stateMutability": "pure",
      "type": "function"
    }
  ],
  "bytecode": "0x60806040523480156200001157600080fd5b506040518060400160405280600e81526020016d2230b49029ba30b13632b1b7b4b760911b8152506040518060400160405280600381526020016244616960e81b81525081600390805190602001906200006d92919062000325565b5080516200008390600490602084019062000325565b50506005805460ff1916601217905550620000b13368056bc75e2d631000006001600160e01b03620001a216565b604051806052620011bc8239604080519182900360520182208282018252600e83526d2230b49029ba30b13632b1b7b4b760911b602093840152815180830190925260018252603160f81b919092015290507f0b1461ddc0c1d5ded79a1db0f74dae949050a7c0b28728c724b24958c27a328b7fc89efdaa54c0f20c7adf612882df0950f5a951637e0307cdcb4c672f298b8bc6620001586001600160e01b03620002ba16565b6040805160208082019690965280820194909452606084019290925260808301523060a0808401919091528151808403909101815260c090920190528051910120600755620003ca565b6001600160a01b038216620001fe576040805162461bcd60e51b815260206004820152601f60248201527f45524332303a206d696e7420746f20746865207a65726f206164647265737300604482015290519081900360640190fd5b62000215600083836001600160e01b03620002be16565b6200023181600254620002c360201b62000c451790919060201c565b6002556001600160a01b038216600090815260208181526040909120546200026491839062000c45620002c3821b17901c565b6001600160a01b0383166000818152602081815260408083209490945583518581529351929391927fddf252ad1be2c89b69c2b068fc378daa952ba7f163c4a11628f55a4df523b3ef9281900390910190a35050565b4690565b505050565b6000828201838110156200031e576040805162461bcd60e51b815260206004820152601b60248201527f536166654d6174683a206164646974696f6e206f766572666c6f770000000000604482015290519081900360640190fd5b9392505050565b828054600181600116156101000203166002900490600052602060002090601f016020900481019282601f106200036857805160ff191683800117855562000398565b8280016001018555821562000398579182015b82811115620003985782518255916020019190600101906200037b565b50620003a6929150620003aa565b5090565b620003c791905b80821115620003a65760008155600101620003b1565b90565b610de280620003da6000396000f3fe608060405234801561001057600080fd5b50600436106101005760003560e01c806370a08231116100975780639a8a0592116100665780639a8a05921461031c578063a457c2d714610324578063a9059cbb14610350578063dd62ed3e1461037c57610100565b806370a082311461026c5780637ecebe00146102925780638fcbaf0c146102b857806395d89b411461031457610100565b806330adf81f116100d357806330adf81f14610212578063313ce5671461021a5780633644e51514610238578063395093511461024057610100565b806306fdde0314610105578063095ea7b31461018257806318160ddd146101c257806323b872dd146101dc575b600080fd5b61010d6103aa565b6040805160208082528351818301528351919283929083019185019080838360005b8381101561014757818101518382015260200161012f565b50505050905090810190601f1680156101745780820380516001836020036101000a031916815260200191505b509250505060405180910390f35b6101ae6004803603604081101561019857600080fd5b506001600160a01b038135169060200135610440565b604080519115158252519081900360200190f35b6101ca61045d565b60408051918252519081900360200190f35b6101ae600480360360608110156101f257600080fd5b506001600160a01b03813581169160208101359091169060400135610463565b6101ca6104f0565b610222610514565b6040805160ff9092168252519081900360200190f35b6101ca61051d565b6101ae6004803603604081101561025657600080fd5b506001600160a01b038135169060200135610523565b6101ca6004803603602081101561028257600080fd5b50356001600160a01b0316610577565b6101ca600480360360208110156102a857600080fd5b50356001600160a01b0316610592565b61031260048036036101008110156102cf57600080fd5b506001600160a01b038135811691602081013590911690604081013590606081013590608081013515159060ff60a0820135169060c08101359060e001356105a4565b005b61010d610845565b6101ca6108a6565b6101ae6004803603604081101561033a57600080fd5b506001600160a01b0381351690602001356108aa565b6101ae6004803603604081101561036657600080fd5b506001600160a01b038135169060200135610918565b6101ca6004803603604081101561039257600080fd5b506001600160a01b038135811691602001351661092c565b60038054604080516020601f60026000196101006001881615020190951694909404938401819004810282018101909252828152606093909290918301828280156104365780601f1061040b57610100808354040283529160200191610436565b820191906000526020600020905b81548152906001019060200180831161041957829003601f168201915b5050505050905090565b600061045461044d610957565b848461095b565b50600192915050565b60025490565b6000610470848484610a47565b6104e68461047c610957565b6104e185604051806060016040528060288152602001610d17602891396001600160a01b038a166000908152600160205260408120906104ba610957565b6001600160a01b03168152602081019190915260400160002054919063ffffffff610bae16565b61095b565b5060019392505050565b7fea2aa0a1be11a07ed86d755c93467f4f82362b452371d1ba94d1715123511acb81565b60055460ff1690565b60075481565b6000610454610530610957565b846104e18560016000610541610957565b6001600160a01b03908116825260208083019390935260409182016000908120918c16815292529020549063ffffffff610c4516565b6001600160a01b031660009081526020819052604090205490565b60066020526000908152604090205481565b600754604080517fea2aa0a1be11a07ed86d755c93467f4f82362b452371d1ba94d1715123511acb6020808301919091526001600160a01b03808d16838501819052908c166060840152608083018b905260a083018a905288151560c0808501919091528451808503909101815260e08401855280519083012061190160f01b610100850152610102840195909552610122808401959095528351808403909501855261014290920190925282519290910191909120906106a4576040805162461bcd60e51b815260206004820152601560248201527404461692f696e76616c69642d616464726573732d3605c1b604482015290519081900360640190fd5b6040805160008152602080820180845284905260ff8716828401526060820186905260808201859052915160019260a0808401939192601f1981019281900390910190855afa1580156106fb573d6000803e3d6000fd5b505050602060405103516001600160a01b0316896001600160a01b03161461075f576040805162461bcd60e51b815260206004820152601260248201527111185a4bda5b9d985b1a590b5c195c9b5a5d60721b604482015290519081900360640190fd5b85158061076c5750854211155b6107b2576040805162461bcd60e51b815260206004820152601260248201527111185a4bdc195c9b5a5d0b595e1c1a5c995960721b604482015290519081900360640190fd5b6001600160a01b0389166000908152600660205260409020805460018101909155871461081a576040805162461bcd60e51b81526020600482015260116024820152704461692f696e76616c69642d6e6f6e636560781b604482015290519081900360640190fd5b60008561082857600061082c565b6000195b90506108398a8a8361095b565b50505050505050505050565b60048054604080516020601f60026000196101006001881615020190951694909404938401819004810282018101909252828152606093909290918301828280156104365780601f1061040b57610100808354040283529160200191610436565b4690565b60006104546108b7610957565b846104e185604051806060016040528060258152602001610d8860259139600160006108e1610957565b6001600160a01b03908116825260208083019390935260409182016000908120918d1681529252902054919063ffffffff610bae16565b6000610454610925610957565b8484610a47565b6001600160a01b03918216600090815260016020908152604080832093909416825291909152205490565b3390565b6001600160a01b0383166109a05760405162461bcd60e51b8152600401808060200182810382526024815260200180610d646024913960400191505060405180910390fd5b6001600160a01b0382166109e55760405162461bcd60e51b8152600401808060200182810382526022815260200180610ccf6022913960400191505060405180910390fd5b6001600160a01b03808416600081815260016020908152604080832094871680845294825291829020859055815185815291517f8c5be1e5ebec7d5bd14f71427d1e84f3dd0314c0f7b2291e5b200ac8c7c3b9259281900390910190a3505050565b6001600160a01b038316610a8c5760405162461bcd60e51b8152600401808060200182810382526025815260200180610d3f6025913960400191505060405180910390fd5b6001600160a01b038216610ad15760405162461bcd60e51b8152600401808060200182810382526023815260200180610cac6023913960400191505060405180910390fd5b610adc838383610ca6565b610b1f81604051806060016040528060268152602001610cf1602691396001600160a01b038616600090815260208190526040902054919063ffffffff610bae16565b6001600160a01b038085166000908152602081905260408082209390935590841681522054610b54908263ffffffff610c4516565b6001600160a01b038084166000818152602081815260409182902094909455805185815290519193928716927fddf252ad1be2c89b69c2b068fc378daa952ba7f163c4a11628f55a4df523b3ef92918290030190a3505050565b60008184841115610c3d5760405162461bcd60e51b81526004018080602001828103825283818151815260200191508051906020019080838360005b83811015610c02578181015183820152602001610bea565b50505050905090810190601f168015610c2f5780820380516001836020036101000a031916815260200191505b509250505060405180910390fd5b505050900390565b600082820183811015610c9f576040805162461bcd60e51b815260206004820152601b60248201527f536166654d6174683a206164646974696f6e206f766572666c6f770000000000604482015290519081900360640190fd5b9392505050565b50505056fe45524332303a207472616e7366657220746f20746865207a65726f206164647265737345524332303a20617070726f766520746f20746865207a65726f206164647265737345524332303a207472616e7366657220616d6f756e7420657863656564732062616c616e636545524332303a207472616e7366657220616d6f756e74206578636565647320616c6c6f77616e636545524332303a207472616e736665722066726f6d20746865207a65726f206164647265737345524332303a20617070726f76652066726f6d20746865207a65726f206164647265737345524332303a2064656372656173656420616c6c6f77616e63652062656c6f77207a65726fa264697066735822122076c02f09badd072cfd80f4ea22172b51b2dbea0b674f33cda9a54467f122b34c64736f6c63430006050033454950373132446f6d61696e28737472696e67206e616d652c737472696e672076657273696f6e2c75696e7432353620636861696e49642c6164647265737320766572696679696e67436f6e747261637429",
  "immutableReferences": {},
  "source": "pragma solidity >=0.6.2 <0.7.0;\n\nimport \"@openzeppelin/contracts/token/ERC20/ERC20.sol\";\n\ncontract TestDai is ERC20(\"Dai Stablecoin\", \"Dai\") {\n  mapping (address => uint) public nonces;\n\n  bytes32 public DOMAIN_SEPARATOR;\n  // bytes32 public constant PERMIT_TYPEHASH = keccak256(\"Permit(address holder,address spender,uint256 nonce,uint256 expiry,bool allowed)\");\n  bytes32 public constant PERMIT_TYPEHASH = 0xea2aa0a1be11a07ed86d755c93467f4f82362b452371d1ba94d1715123511acb;\n\n\n  constructor() public {\n    _mint(msg.sender, 100 ether);\n\n    DOMAIN_SEPARATOR = keccak256(abi.encode(\n            keccak256(\"EIP712Domain(string name,string version,uint256 chainId,address verifyingContract)\"),\n            keccak256(bytes(\"Dai Stablecoin\")),\n            keccak256(bytes(\"1\")),\n            chainId(),\n            address(this)\n        ));\n  }\n\n  function permit(address holder, address spender, uint256 nonce, uint256 expiry,\n                  bool allowed, uint8 v, bytes32 r, bytes32 s) external\n  {\n    bytes32 digest =\n      keccak256(abi.encodePacked(\n        \"\\x19\\x01\",\n        DOMAIN_SEPARATOR,\n        keccak256(abi.encode(PERMIT_TYPEHASH,\n                             holder,\n                             spender,\n                             nonce,\n                             expiry,\n                             allowed))\n    ));\n\n    require(holder != address(0), \"Dai/invalid-address-0\");\n    require(holder == ecrecover(digest, v, r, s), \"Dai/invalid-permit\");\n    require(expiry == 0 || now <= expiry, \"Dai/permit-expired\");\n    require(nonce == nonces[holder]++, \"Dai/invalid-nonce\");\n    uint wad = allowed ? uint(-1) : 0;\n\n    _approve(holder, spender, wad);\n  }\n\n  function chainId() public pure returns (uint _chainId) {\n    assembly {\n      _chainId := chainid()\n    }\n  }\n}\n",
  "sourcePath": "/Users/dmihal/keystone/defi-777/contracts/contracts/test/TestDai.sol",
  "compiler": {
    "name": "solc",
    "version": "0.6.5+commit.f956cc89.Emscripten.clang"
  },
  "schemaVersion": "3.1.0",
  "updatedAt": "2020-08-05T15:43:50.670Z",
  "devdoc": {
    "methods": {
      "allowance(address,address)": {
        "details": "See {IERC20-allowance}."
      },
      "approve(address,uint256)": {
        "details": "See {IERC20-approve}.     * Requirements:     * - `spender` cannot be the zero address."
      },
      "balanceOf(address)": {
        "details": "See {IERC20-balanceOf}."
      },
      "decimals()": {
        "details": "Returns the number of decimals used to get its user representation. For example, if `decimals` equals `2`, a balance of `505` tokens should be displayed to a user as `5,05` (`505 / 10 ** 2`).     * Tokens usually opt for a value of 18, imitating the relationship between Ether and Wei. This is the value {ERC20} uses, unless {_setupDecimals} is called.     * NOTE: This information is only used for _display_ purposes: it in no way affects any of the arithmetic of the contract, including {IERC20-balanceOf} and {IERC20-transfer}."
      },
      "decreaseAllowance(address,uint256)": {
        "details": "Atomically decreases the allowance granted to `spender` by the caller.     * This is an alternative to {approve} that can be used as a mitigation for problems described in {IERC20-approve}.     * Emits an {Approval} event indicating the updated allowance.     * Requirements:     * - `spender` cannot be the zero address. - `spender` must have allowance for the caller of at least `subtractedValue`."
      },
      "increaseAllowance(address,uint256)": {
        "details": "Atomically increases the allowance granted to `spender` by the caller.     * This is an alternative to {approve} that can be used as a mitigation for problems described in {IERC20-approve}.     * Emits an {Approval} event indicating the updated allowance.     * Requirements:     * - `spender` cannot be the zero address."
      },
      "name()": {
        "details": "Returns the name of the token."
      },
      "symbol()": {
        "details": "Returns the symbol of the token, usually a shorter version of the name."
      },
      "totalSupply()": {
        "details": "See {IERC20-totalSupply}."
      },
      "transfer(address,uint256)": {
        "details": "See {IERC20-transfer}.     * Requirements:     * - `recipient` cannot be the zero address. - the caller must have a balance of at least `amount`."
      },
      "transferFrom(address,address,uint256)": {
        "details": "See {IERC20-transferFrom}.     * Emits an {Approval} event indicating the updated allowance. This is not required by the EIP. See the note at the beginning of {ERC20};     * Requirements: - `sender` and `recipient` cannot be the zero address. - `sender` must have a balance of at least `amount`. - the caller must have allowance for ``sender``'s tokens of at least `amount`."
      }
    }
  },
  "userdoc": {
    "methods": {}
  }
}